{
  "_format": "hh-sol-artifact-1",
  "contractName": "Fishking",
  "sourceName": "contracts/Fishking.sol",
  "abi": [
    {
      "inputs": [],
      "stateMutability": "nonpayable",
      "type": "constructor"
    },
    {
      "anonymous": false,
      "inputs": [
        {
          "indexed": true,
          "internalType": "address",
          "name": "owner",
          "type": "address"
        },
        {
          "indexed": true,
          "internalType": "address",
          "name": "spender",
          "type": "address"
        },
        {
          "indexed": false,
          "internalType": "uint256",
          "name": "value",
          "type": "uint256"
        }
      ],
      "name": "Approval",
      "type": "event"
    },
    {
      "anonymous": false,
      "inputs": [
        {
          "indexed": true,
          "internalType": "address",
          "name": "account",
          "type": "address"
        },
        {
          "indexed": false,
          "internalType": "bool",
          "name": "isExcluded",
          "type": "bool"
        }
      ],
      "name": "ExcludeFromFees",
      "type": "event"
    },
    {
      "anonymous": false,
      "inputs": [
        {
          "indexed": false,
          "internalType": "address[]",
          "name": "accounts",
          "type": "address[]"
        },
        {
          "indexed": false,
          "internalType": "bool",
          "name": "isExcluded",
          "type": "bool"
        }
      ],
      "name": "ExcludeMultipleAccountsFromFees",
      "type": "event"
    },
    {
      "anonymous": false,
      "inputs": [
        {
          "indexed": true,
          "internalType": "address",
          "name": "previousOwner",
          "type": "address"
        },
        {
          "indexed": true,
          "internalType": "address",
          "name": "newOwner",
          "type": "address"
        }
      ],
      "name": "OwnershipTransferred",
      "type": "event"
    },
    {
      "anonymous": false,
      "inputs": [
        {
          "indexed": true,
          "internalType": "address",
          "name": "pair",
          "type": "address"
        },
        {
          "indexed": true,
          "internalType": "bool",
          "name": "value",
          "type": "bool"
        }
      ],
      "name": "SetAutomatedMarketMakerPair",
      "type": "event"
    },
    {
      "anonymous": false,
      "inputs": [
        {
          "indexed": true,
          "internalType": "address",
          "name": "from",
          "type": "address"
        },
        {
          "indexed": true,
          "internalType": "address",
          "name": "to",
          "type": "address"
        },
        {
          "indexed": false,
          "internalType": "uint256",
          "name": "value",
          "type": "uint256"
        }
      ],
      "name": "Transfer",
      "type": "event"
    },
    {
      "anonymous": false,
      "inputs": [
        {
          "indexed": true,
          "internalType": "address",
          "name": "newAddress",
          "type": "address"
        },
        {
          "indexed": true,
          "internalType": "address",
          "name": "oldAddress",
          "type": "address"
        }
      ],
      "name": "UpdateUniswapV2Router",
      "type": "event"
    },
    {
      "inputs": [
        {
          "internalType": "address",
          "name": "",
          "type": "address"
        }
      ],
      "name": "_isBlacklisted",
      "outputs": [
        {
          "internalType": "bool",
          "name": "",
          "type": "bool"
        }
      ],
      "stateMutability": "view",
      "type": "function"
    },
    {
      "inputs": [],
      "name": "_marketingWallet",
      "outputs": [
        {
          "internalType": "address",
          "name": "",
          "type": "address"
        }
      ],
      "stateMutability": "view",
      "type": "function"
    },
    {
      "inputs": [
        {
          "internalType": "address",
          "name": "owner",
          "type": "address"
        },
        {
          "internalType": "address",
          "name": "spender",
          "type": "address"
        }
      ],
      "name": "allowance",
      "outputs": [
        {
          "internalType": "uint256",
          "name": "",
          "type": "uint256"
        }
      ],
      "stateMutability": "view",
      "type": "function"
    },
    {
      "inputs": [
        {
          "internalType": "address",
          "name": "spender",
          "type": "address"
        },
        {
          "internalType": "uint256",
          "name": "amount",
          "type": "uint256"
        }
      ],
      "name": "approve",
      "outputs": [
        {
          "internalType": "bool",
          "name": "",
          "type": "bool"
        }
      ],
      "stateMutability": "nonpayable",
      "type": "function"
    },
    {
      "inputs": [
        {
          "internalType": "address",
          "name": "",
          "type": "address"
        }
      ],
      "name": "automatedMarketMakerPairs",
      "outputs": [
        {
          "internalType": "bool",
          "name": "",
          "type": "bool"
        }
      ],
      "stateMutability": "view",
      "type": "function"
    },
    {
      "inputs": [
        {
          "internalType": "address",
          "name": "account",
          "type": "address"
        }
      ],
      "name": "balanceOf",
      "outputs": [
        {
          "internalType": "uint256",
          "name": "",
          "type": "uint256"
        }
      ],
      "stateMutability": "view",
      "type": "function"
    },
    {
      "inputs": [
        {
          "internalType": "address",
          "name": "account",
          "type": "address"
        },
        {
          "internalType": "bool",
          "name": "value",
          "type": "bool"
        }
      ],
      "name": "blacklistAddress",
      "outputs": [],
      "stateMutability": "nonpayable",
      "type": "function"
    },
    {
      "inputs": [],
      "name": "decimals",
      "outputs": [
        {
          "internalType": "uint8",
          "name": "",
          "type": "uint8"
        }
      ],
      "stateMutability": "view",
      "type": "function"
    },
    {
      "inputs": [
        {
          "internalType": "address",
          "name": "spender",
          "type": "address"
        },
        {
          "internalType": "uint256",
          "name": "subtractedValue",
          "type": "uint256"
        }
      ],
      "name": "decreaseAllowance",
      "outputs": [
        {
          "internalType": "bool",
          "name": "",
          "type": "bool"
        }
      ],
      "stateMutability": "nonpayable",
      "type": "function"
    },
    {
      "inputs": [
        {
          "internalType": "address",
          "name": "account",
          "type": "address"
        },
        {
          "internalType": "bool",
          "name": "excluded",
          "type": "bool"
        }
      ],
      "name": "excludeFromFees",
      "outputs": [],
      "stateMutability": "nonpayable",
      "type": "function"
    },
    {
      "inputs": [
        {
          "internalType": "address[]",
          "name": "accounts",
          "type": "address[]"
        },
        {
          "internalType": "bool",
          "name": "excluded",
          "type": "bool"
        }
      ],
      "name": "excludeMultipleAccountsFromFees",
      "outputs": [],
      "stateMutability": "nonpayable",
      "type": "function"
    },
    {
      "inputs": [
        {
          "internalType": "address",
          "name": "spender",
          "type": "address"
        },
        {
          "internalType": "uint256",
          "name": "addedValue",
          "type": "uint256"
        }
      ],
      "name": "increaseAllowance",
      "outputs": [
        {
          "internalType": "bool",
          "name": "",
          "type": "bool"
        }
      ],
      "stateMutability": "nonpayable",
      "type": "function"
    },
    {
      "inputs": [
        {
          "internalType": "address",
          "name": "account",
          "type": "address"
        }
      ],
      "name": "isExcludedFromFees",
      "outputs": [
        {
          "internalType": "bool",
          "name": "",
          "type": "bool"
        }
      ],
      "stateMutability": "view",
      "type": "function"
    },
    {
      "inputs": [],
      "name": "jfToken",
      "outputs": [
        {
          "internalType": "address",
          "name": "",
          "type": "address"
        }
      ],
      "stateMutability": "view",
      "type": "function"
    },
    {
      "inputs": [],
      "name": "marketingFee",
      "outputs": [
        {
          "internalType": "uint256",
          "name": "",
          "type": "uint256"
        }
      ],
      "stateMutability": "view",
      "type": "function"
    },
    {
      "inputs": [],
      "name": "name",
      "outputs": [
        {
          "internalType": "string",
          "name": "",
          "type": "string"
        }
      ],
      "stateMutability": "view",
      "type": "function"
    },
    {
      "inputs": [],
      "name": "owner",
      "outputs": [
        {
          "internalType": "address",
          "name": "",
          "type": "address"
        }
      ],
      "stateMutability": "view",
      "type": "function"
    },
    {
      "inputs": [],
      "name": "renounceOwnership",
      "outputs": [],
      "stateMutability": "nonpayable",
      "type": "function"
    },
    {
      "inputs": [
        {
          "internalType": "address",
          "name": "token",
          "type": "address"
        },
        {
          "internalType": "uint256",
          "name": "amount",
          "type": "uint256"
        }
      ],
      "name": "rescueToken",
      "outputs": [
        {
          "internalType": "bool",
          "name": "success",
          "type": "bool"
        }
      ],
      "stateMutability": "nonpayable",
      "type": "function"
    },
    {
      "inputs": [
        {
          "internalType": "address",
          "name": "pair",
          "type": "address"
        },
        {
          "internalType": "bool",
          "name": "value",
          "type": "bool"
        }
      ],
      "name": "setAutomatedMarketMakerPair",
      "outputs": [],
      "stateMutability": "nonpayable",
      "type": "function"
    },
    {
      "inputs": [
        {
          "internalType": "uint256",
          "name": "value",
          "type": "uint256"
        }
      ],
      "name": "setMarketingFee",
      "outputs": [],
      "stateMutability": "nonpayable",
      "type": "function"
    },
    {
      "inputs": [
        {
          "internalType": "address payable",
          "name": "wallet",
          "type": "address"
        }
      ],
      "name": "setMarketingWallet",
      "outputs": [],
      "stateMutability": "nonpayable",
      "type": "function"
    },
    {
      "inputs": [],
      "name": "swapTokensAtAmount",
      "outputs": [
        {
          "internalType": "uint256",
          "name": "",
          "type": "uint256"
        }
      ],
      "stateMutability": "view",
      "type": "function"
    },
    {
      "inputs": [],
      "name": "symbol",
      "outputs": [
        {
          "internalType": "string",
          "name": "",
          "type": "string"
        }
      ],
      "stateMutability": "view",
      "type": "function"
    },
    {
      "inputs": [],
      "name": "totalSupply",
      "outputs": [
        {
          "internalType": "uint256",
          "name": "",
          "type": "uint256"
        }
      ],
      "stateMutability": "view",
      "type": "function"
    },
    {
      "inputs": [
        {
          "internalType": "address",
          "name": "recipient",
          "type": "address"
        },
        {
          "internalType": "uint256",
          "name": "amount",
          "type": "uint256"
        }
      ],
      "name": "transfer",
      "outputs": [
        {
          "internalType": "bool",
          "name": "",
          "type": "bool"
        }
      ],
      "stateMutability": "nonpayable",
      "type": "function"
    },
    {
      "inputs": [
        {
          "internalType": "address",
          "name": "sender",
          "type": "address"
        },
        {
          "internalType": "address",
          "name": "recipient",
          "type": "address"
        },
        {
          "internalType": "uint256",
          "name": "amount",
          "type": "uint256"
        }
      ],
      "name": "transferFrom",
      "outputs": [
        {
          "internalType": "bool",
          "name": "",
          "type": "bool"
        }
      ],
      "stateMutability": "nonpayable",
      "type": "function"
    },
    {
      "inputs": [
        {
          "internalType": "address",
          "name": "newOwner",
          "type": "address"
        }
      ],
      "name": "transferOwnership",
      "outputs": [],
      "stateMutability": "nonpayable",
      "type": "function"
    },
    {
      "inputs": [],
      "name": "uniswapV2Pair",
      "outputs": [
        {
          "internalType": "address",
          "name": "",
          "type": "address"
        }
      ],
      "stateMutability": "view",
      "type": "function"
    },
    {
      "inputs": [],
      "name": "uniswapV2Router",
      "outputs": [
        {
          "internalType": "contract IUniswapV2Router02",
          "name": "",
          "type": "address"
        }
      ],
      "stateMutability": "view",
      "type": "function"
    },
    {
      "inputs": [
        {
          "internalType": "address",
          "name": "newAddress",
          "type": "address"
        }
      ],
      "name": "updateUniswapV2Router",
      "outputs": [],
      "stateMutability": "nonpayable",
      "type": "function"
    },
    {
      "stateMutability": "payable",
      "type": "receive"
    }
  ],
  "bytecode": "0x6080604052670de0b6b3a7640000600855600a8055600b80546001600160a01b03191673beea22240fddc880018d35eadddee147f04725151790553480156200004757600080fd5b5060405180604001604052806008815260200167466973686b696e6760c01b8152506040518060400160405280600481526020016308c92a6960e31b815250601260006200009a6200037d60201b60201c565b600080546001600160a01b0319166001600160a01b0383169081178255604051929350917f8be0079c531659141344cd1fd0a4f28419497f9722a3daafe3b4186f6b6457e0908290a3508251620000f990600490602086019062000726565b5081516200010f90600590602085019062000726565b506006805460ff191660ff9290921691909117905550506040805163c45a015560e01b8152905173069a306a638ac9d3a68a6bd8be898774c073dcb391600091839163c45a0155916004808301926020929190829003018186803b1580156200017757600080fd5b505afa1580156200018c573d6000803e3d6000fd5b505050506040513d601f19601f82011682018060405250810190620001b29190620007cc565b6001600160a01b031663c9c6539630846001600160a01b031663ad5c46486040518163ffffffff1660e01b815260040160206040518083038186803b158015620001fb57600080fd5b505afa15801562000210573d6000803e3d6000fd5b505050506040513d601f19601f82011682018060405250810190620002369190620007cc565b6040516001600160e01b031960e085901b1681526001600160a01b03928316600482015291166024820152604401602060405180830381600087803b1580156200027f57600080fd5b505af115801562000294573d6000803e3d6000fd5b505050506040513d601f19601f82011682018060405250810190620002ba9190620007cc565b60068054610100600160a81b0319166101006001600160a01b038681169190910291909117909155600780546001600160a01b03191691831691909117905590506200030881600162000381565b620003276200031f6000546001600160a01b031690565b600162000470565b600b5462000340906001600160a01b0316600162000470565b6200034d30600162000470565b62000375620003646000546001600160a01b031690565b69d3c21bcecceda1000000620005b5565b505062000857565b3390565b6001600160a01b0382166000908152600d602052604090205460ff16151581151514156200041c5760405162461bcd60e51b815260206004820152603e60248201527f464953483a204175746f6d61746564206d61726b6574206d616b65722070616960448201527f7220697320616c72656164792073657420746f20746861742076616c7565000060648201526084015b60405180910390fd5b6001600160a01b0382166000818152600d6020526040808220805460ff191685151590811790915590519092917fffa9187bf1f18bf477bd0ea1bcbb64e93b6a98132473929edfce215cd9b16fab91a35050565b6000546001600160a01b03163314620004cc5760405162461bcd60e51b815260206004820181905260248201527f4f776e61626c653a2063616c6c6572206973206e6f7420746865206f776e6572604482015260640162000413565b6001600160a01b0382166000908152600c602052604090205460ff1615158115151415620005565760405162461bcd60e51b815260206004820152603060248201527f464953483a204163636f756e7420697320616c7265616479207468652076616c60448201526f7565206f6620276578636c756465642760801b606482015260840162000413565b6001600160a01b0382166000818152600c6020908152604091829020805460ff191685151590811790915591519182527f9d8f7706ea1113d1a167b526eca956215946dd36cc7df39eb16180222d8b5df7910160405180910390a25050565b6001600160a01b0382166200060d5760405162461bcd60e51b815260206004820152601f60248201527f45524332303a206d696e7420746f20746865207a65726f206164647265737300604482015260640162000413565b6200062981600354620006bc60201b6200106d1790919060201c565b6003556001600160a01b0382166000908152600160209081526040909120546200065e9183906200106d620006bc821b17901c565b6001600160a01b0383166000818152600160205260408082209390935591519091907fddf252ad1be2c89b69c2b068fc378daa952ba7f163c4a11628f55a4df523b3ef90620006b09085815260200190565b60405180910390a35050565b600080620006cb8385620007f5565b9050838110156200071f5760405162461bcd60e51b815260206004820152601b60248201527f536166654d6174683a206164646974696f6e206f766572666c6f770000000000604482015260640162000413565b9392505050565b82805462000734906200081a565b90600052602060002090601f016020900481019282620007585760008555620007a3565b82601f106200077357805160ff1916838001178555620007a3565b82800160010185558215620007a3579182015b82811115620007a357825182559160200191906001019062000786565b50620007b1929150620007b5565b5090565b5b80821115620007b15760008155600101620007b6565b600060208284031215620007de578081fd5b81516001600160a01b03811681146200071f578182fd5b600082198211156200081557634e487b7160e01b81526011600452602481fd5b500190565b600181811c908216806200082f57607f821691505b602082108114156200085157634e487b7160e01b600052602260045260246000fd5b50919050565b611e0580620008676000396000f3fe6080604052600436106101dc5760003560e01c80636b67c4df11610102578063a9059cbb11610095578063c705545811610064578063c7055458146105b0578063dd62ed3e146105d8578063e2f456051461061e578063f2fde38b1461063457600080fd5b8063a9059cbb14610520578063b62496f514610540578063c024666814610570578063c492f0461461059057600080fd5b806395d89b41116100d157806395d89b41146104ab578063962dfc75146104c05780639a7a23d6146104e0578063a457c2d71461050057600080fd5b80636b67c4df1461042c57806370a0823114610442578063715018a6146104785780638da5cb5b1461048d57600080fd5b806333f3d6281161017a5780634fbee193116101495780634fbee193146103935780635d098b38146103cc578063625e764c146103ec57806365b8dbc01461040c57600080fd5b806333f3d628146103115780633950935114610331578063455a43961461035157806349bd5a5e1461037357600080fd5b806318160ddd116101b657806318160ddd146102805780631cdd3be31461029f57806323b872dd146102cf578063313ce567146102ef57600080fd5b806306fdde03146101e8578063095ea7b3146102135780631694505e1461024357600080fd5b366101e357005b600080fd5b3480156101f457600080fd5b506101fd610654565b60405161020a9190611adc565b60405180910390f35b34801561021f57600080fd5b5061023361022e3660046119a3565b6106e6565b604051901515815260200161020a565b34801561024f57600080fd5b506006546102689061010090046001600160a01b031681565b6040516001600160a01b03909116815260200161020a565b34801561028c57600080fd5b506003545b60405190815260200161020a565b3480156102ab57600080fd5b506102336102ba3660046118c6565b60096020526000908152604090205460ff1681565b3480156102db57600080fd5b506102336102ea366004611936565b6106fc565b3480156102fb57600080fd5b5060065460405160ff909116815260200161020a565b34801561031d57600080fd5b5061023361032c3660046119a3565b610765565b34801561033d57600080fd5b5061023361034c3660046119a3565b610820565b34801561035d57600080fd5b5061037161036c366004611976565b610856565b005b34801561037f57600080fd5b50600754610268906001600160a01b031681565b34801561039f57600080fd5b506102336103ae3660046118c6565b6001600160a01b03166000908152600c602052604090205460ff1690565b3480156103d857600080fd5b506103716103e73660046118c6565b6108ab565b3480156103f857600080fd5b50610371610407366004611a6b565b6108f7565b34801561041857600080fd5b506103716104273660046118c6565b610926565b34801561043857600080fd5b50610291600a5481565b34801561044e57600080fd5b5061029161045d3660046118c6565b6001600160a01b031660009081526001602052604090205490565b34801561048457600080fd5b50610371610bed565b34801561049957600080fd5b506000546001600160a01b0316610268565b3480156104b757600080fd5b506101fd610c61565b3480156104cc57600080fd5b50600b54610268906001600160a01b031681565b3480156104ec57600080fd5b506103716104fb366004611976565b610c70565b34801561050c57600080fd5b5061023361051b3660046119a3565b610d2c565b34801561052c57600080fd5b5061023361053b3660046119a3565b610d7b565b34801561054c57600080fd5b5061023361055b3660046118c6565b600d6020526000908152604090205460ff1681565b34801561057c57600080fd5b5061037161058b366004611976565b610d88565b34801561059c57600080fd5b506103716105ab3660046119ce565b610e99565b3480156105bc57600080fd5b50610268735fac926bf1e638944bb16fb5b787b5ba4bc85b0a81565b3480156105e457600080fd5b506102916105f33660046118fe565b6001600160a01b03918216600090815260026020908152604080832093909416825291909152205490565b34801561062a57600080fd5b5061029160085481565b34801561064057600080fd5b5061037161064f3660046118c6565b610f83565b60606004805461066390611cca565b80601f016020809104026020016040519081016040528092919081815260200182805461068f90611cca565b80156106dc5780601f106106b1576101008083540402835291602001916106dc565b820191906000526020600020905b8154815290600101906020018083116106bf57829003601f168201915b5050505050905090565b60006106f33384846110cc565b50600192915050565b60006107098484846111f1565b61075b843361075685604051806060016040528060288152602001611d83602891396001600160a01b038a1660009081526002602090815260408083203384529091529020549190611445565b6110cc565b5060019392505050565b600080546001600160a01b031633146107995760405162461bcd60e51b815260040161079090611b72565b60405180910390fd5b60405163a9059cbb60e01b8152336004820152602481018390526001600160a01b0384169063a9059cbb90604401602060405180830381600087803b1580156107e157600080fd5b505af11580156107f5573d6000803e3d6000fd5b505050506040513d601f19601f820116820180604052508101906108199190611a4f565b9392505050565b3360008181526002602090815260408083206001600160a01b038716845290915281205490916106f3918590610756908661106d565b6000546001600160a01b031633146108805760405162461bcd60e51b815260040161079090611b72565b6001600160a01b03919091166000908152600960205260409020805460ff1916911515919091179055565b6000546001600160a01b031633146108d55760405162461bcd60e51b815260040161079090611b72565b600b80546001600160a01b0319166001600160a01b0392909216919091179055565b6000546001600160a01b031633146109215760405162461bcd60e51b815260040161079090611b72565b600a55565b6000546001600160a01b031633146109505760405162461bcd60e51b815260040161079090611b72565b6006546001600160a01b038281166101009092041614156109c55760405162461bcd60e51b815260206004820152602960248201527f464953483a2054686520726f7574657220616c7265616479206861732074686160448201526874206164647265737360b81b6064820152608401610790565b6006546040516001600160a01b036101009092048216918316907f8fc842bbd331dfa973645f4ed48b11683d501ebf1352708d77a5da2ab49a576e90600090a380600660016101000a8154816001600160a01b0302191690836001600160a01b031602179055506000600660019054906101000a90046001600160a01b03166001600160a01b031663c45a01556040518163ffffffff1660e01b815260040160206040518083038186803b158015610a7c57600080fd5b505afa158015610a90573d6000803e3d6000fd5b505050506040513d601f19601f82011682018060405250810190610ab491906118e2565b6001600160a01b031663c9c6539630600660019054906101000a90046001600160a01b03166001600160a01b031663ad5c46486040518163ffffffff1660e01b815260040160206040518083038186803b158015610b1157600080fd5b505afa158015610b25573d6000803e3d6000fd5b505050506040513d601f19601f82011682018060405250810190610b4991906118e2565b6040516001600160e01b031960e085901b1681526001600160a01b03928316600482015291166024820152604401602060405180830381600087803b158015610b9157600080fd5b505af1158015610ba5573d6000803e3d6000fd5b505050506040513d601f19601f82011682018060405250810190610bc991906118e2565b600780546001600160a01b0319166001600160a01b03929092169190911790555050565b6000546001600160a01b03163314610c175760405162461bcd60e51b815260040161079090611b72565b600080546040516001600160a01b03909116907f8be0079c531659141344cd1fd0a4f28419497f9722a3daafe3b4186f6b6457e0908390a3600080546001600160a01b0319169055565b60606005805461066390611cca565b6000546001600160a01b03163314610c9a5760405162461bcd60e51b815260040161079090611b72565b6007546001600160a01b0383811691161415610d1e5760405162461bcd60e51b815260206004820152603f60248201527f464953483a2054686520706169722063616e6e6f742062652072656d6f76656460448201527f2066726f6d206175746f6d617465644d61726b65744d616b65725061697273006064820152608401610790565b610d28828261147f565b5050565b60006106f3338461075685604051806060016040528060258152602001611dab602591393360009081526002602090815260408083206001600160a01b038d1684529091529020549190611445565b60006106f33384846111f1565b6000546001600160a01b03163314610db25760405162461bcd60e51b815260040161079090611b72565b6001600160a01b0382166000908152600c602052604090205460ff1615158115151415610e3a5760405162461bcd60e51b815260206004820152603060248201527f464953483a204163636f756e7420697320616c7265616479207468652076616c60448201526f7565206f6620276578636c756465642760801b6064820152608401610790565b6001600160a01b0382166000818152600c6020908152604091829020805460ff191685151590811790915591519182527f9d8f7706ea1113d1a167b526eca956215946dd36cc7df39eb16180222d8b5df7910160405180910390a25050565b6000546001600160a01b03163314610ec35760405162461bcd60e51b815260040161079090611b72565b60005b82811015610f425781600c6000868685818110610ef357634e487b7160e01b600052603260045260246000fd5b9050602002016020810190610f0891906118c6565b6001600160a01b031681526020810191909152604001600020805460ff191691151591909117905580610f3a81611d05565b915050610ec6565b507f7fdaf542373fa84f4ee8d662c642f44e4c2276a217d7d29e548b6eb29a233b35838383604051610f7693929190611a83565b60405180910390a1505050565b6000546001600160a01b03163314610fad5760405162461bcd60e51b815260040161079090611b72565b6001600160a01b0381166110125760405162461bcd60e51b815260206004820152602660248201527f4f776e61626c653a206e6577206f776e657220697320746865207a65726f206160448201526564647265737360d01b6064820152608401610790565b600080546040516001600160a01b03808516939216917f8be0079c531659141344cd1fd0a4f28419497f9722a3daafe3b4186f6b6457e091a3600080546001600160a01b0319166001600160a01b0392909216919091179055565b60008061107a8385611c5c565b9050838110156108195760405162461bcd60e51b815260206004820152601b60248201527f536166654d6174683a206164646974696f6e206f766572666c6f7700000000006044820152606401610790565b6001600160a01b03831661112e5760405162461bcd60e51b8152602060048201526024808201527f45524332303a20617070726f76652066726f6d20746865207a65726f206164646044820152637265737360e01b6064820152608401610790565b6001600160a01b03821661118f5760405162461bcd60e51b815260206004820152602260248201527f45524332303a20617070726f766520746f20746865207a65726f206164647265604482015261737360f01b6064820152608401610790565b6001600160a01b0383811660008181526002602090815260408083209487168084529482529182902085905590518481527f8c5be1e5ebec7d5bd14f71427d1e84f3dd0314c0f7b2291e5b200ac8c7c3b92591015b60405180910390a3505050565b6001600160a01b0383166112175760405162461bcd60e51b815260040161079090611ba7565b6001600160a01b03821661123d5760405162461bcd60e51b815260040161079090611b2f565b6001600160a01b03831660009081526009602052604090205460ff1615801561127f57506001600160a01b03821660009081526009602052604090205460ff16155b6112c15760405162461bcd60e51b8152602060048201526013602482015272426c61636b6c6973746564206164647265737360681b6044820152606401610790565b806112d7576112d283836000611568565b505050565b306000908152600160209081526040808320546008546001600160a01b0388168552600d90935292205490821080159160ff169082906113215750600754600160a01b900460ff16155b801561132b575080155b801561134557506000546001600160a01b03878116911614155b801561135f57506000546001600160a01b03868116911614155b1561138e576007805460ff60a01b1916600160a01b179055611380836115bf565b6007805460ff60a01b191690555b600754600090600160a01b900460ff161580156113a9575081155b6001600160a01b0388166000908152600c602052604090205490915060ff16806113eb57506001600160a01b0386166000908152600c602052604090205460ff165b156113f4575060005b80156114315760006064600a548761140c9190611c94565b6114169190611c74565b905061142286826117c4565b955061142f883083611568565b505b61143c878787611568565b50505050505050565b600081848411156114695760405162461bcd60e51b81526004016107909190611adc565b5060006114768486611cb3565b95945050505050565b6001600160a01b0382166000908152600d602052604090205460ff16151581151514156115145760405162461bcd60e51b815260206004820152603e60248201527f464953483a204175746f6d61746564206d61726b6574206d616b65722070616960448201527f7220697320616c72656164792073657420746f20746861742076616c756500006064820152608401610790565b6001600160a01b0382166000818152600d6020526040808220805460ff191685151590811790915590519092917fffa9187bf1f18bf477bd0ea1bcbb64e93b6a98132473929edfce215cd9b16fab91a35050565b6001600160a01b03831661158e5760405162461bcd60e51b815260040161079090611ba7565b6001600160a01b0382166115b45760405162461bcd60e51b815260040161079090611b2f565b6112d2838383611806565b6040805160038082526080820190925260009160208201606080368337019050509050308160008151811061160457634e487b7160e01b600052603260045260246000fd5b60200260200101906001600160a01b031690816001600160a01b031681525050600660019054906101000a90046001600160a01b03166001600160a01b031663ad5c46486040518163ffffffff1660e01b815260040160206040518083038186803b15801561167257600080fd5b505afa158015611686573d6000803e3d6000fd5b505050506040513d601f19601f820116820180604052508101906116aa91906118e2565b816001815181106116cb57634e487b7160e01b600052603260045260246000fd5b60200260200101906001600160a01b031690816001600160a01b031681525050735fac926bf1e638944bb16fb5b787b5ba4bc85b0a8160028151811061172157634e487b7160e01b600052603260045260246000fd5b6001600160a01b03928316602091820292909201015260065461174c913091610100900416846110cc565b600654600b54604051635c11d79560e01b81526001600160a01b03610100909304831692635c11d7959261178e92879260009288929116904290600401611bec565b600060405180830381600087803b1580156117a857600080fd5b505af11580156117bc573d6000803e3d6000fd5b505050505050565b600061081983836040518060400160405280601e81526020017f536166654d6174683a207375627472616374696f6e206f766572666c6f770000815250611445565b61184381604051806060016040528060268152602001611d5d602691396001600160a01b0386166000908152600160205260409020549190611445565b6001600160a01b038085166000908152600160205260408082209390935590841681522054611872908261106d565b6001600160a01b0380841660008181526001602052604090819020939093559151908516907fddf252ad1be2c89b69c2b068fc378daa952ba7f163c4a11628f55a4df523b3ef906111e49085815260200190565b6000602082840312156118d7578081fd5b813561081981611d36565b6000602082840312156118f3578081fd5b815161081981611d36565b60008060408385031215611910578081fd5b823561191b81611d36565b9150602083013561192b81611d36565b809150509250929050565b60008060006060848603121561194a578081fd5b833561195581611d36565b9250602084013561196581611d36565b929592945050506040919091013590565b60008060408385031215611988578182fd5b823561199381611d36565b9150602083013561192b81611d4e565b600080604083850312156119b5578182fd5b82356119c081611d36565b946020939093013593505050565b6000806000604084860312156119e2578283fd5b833567ffffffffffffffff808211156119f9578485fd5b818601915086601f830112611a0c578485fd5b813581811115611a1a578586fd5b8760208260051b8501011115611a2e578586fd5b60209283019550935050840135611a4481611d4e565b809150509250925092565b600060208284031215611a60578081fd5b815161081981611d4e565b600060208284031215611a7c578081fd5b5035919050565b6040808252810183905260008460608301825b86811015611ac6578235611aa981611d36565b6001600160a01b0316825260209283019290910190600101611a96565b5080925050508215156020830152949350505050565b6000602080835283518082850152825b81811015611b0857858101830151858201604001528201611aec565b81811115611b195783604083870101525b50601f01601f1916929092016040019392505050565b60208082526023908201527f45524332303a207472616e7366657220746f20746865207a65726f206164647260408201526265737360e81b606082015260800190565b6020808252818101527f4f776e61626c653a2063616c6c6572206973206e6f7420746865206f776e6572604082015260600190565b60208082526025908201527f45524332303a207472616e736665722066726f6d20746865207a65726f206164604082015264647265737360d81b606082015260800190565b600060a082018783526020878185015260a0604085015281875180845260c0860191508289019350845b81811015611c3b5784516001600160a01b031683529383019391830191600101611c16565b50506001600160a01b03969096166060850152505050608001529392505050565b60008219821115611c6f57611c6f611d20565b500190565b600082611c8f57634e487b7160e01b81526012600452602481fd5b500490565b6000816000190483118215151615611cae57611cae611d20565b500290565b600082821015611cc557611cc5611d20565b500390565b600181811c90821680611cde57607f821691505b60208210811415611cff57634e487b7160e01b600052602260045260246000fd5b50919050565b6000600019821415611d1957611d19611d20565b5060010190565b634e487b7160e01b600052601160045260246000fd5b6001600160a01b0381168114611d4b57600080fd5b50565b8015158114611d4b57600080fdfe45524332303a207472616e7366657220616d6f756e7420657863656564732062616c616e636545524332303a207472616e7366657220616d6f756e74206578636565647320616c6c6f77616e636545524332303a2064656372656173656420616c6c6f77616e63652062656c6f77207a65726fa26469706673582212208dbe8b6261a645516b791a44162158b7dbd26095ed6b096dd881acef16a6f81564736f6c63430008040033",
  "linkReferences": {},
  "deployedLinkReferences": {}
}